:100000000C94FE000C9422010C9422010C94220109
:100010000C9422010C9422010C9422010C942201D4
:100020000C9422010C9422010C9422010C942201C4
:100030000C9422010C9422010C9422010C942201B4
:100040000C9422010C9422010C9422010C942201A4
:100050000C9422010C9422010C9422010C94220194
:100060000C9422010C9422010C9422010C94220184
:100070000C9422010C9422010C9422010C94220174
:100080000C9422010C9422010C9422010C94220164
:100090000C9422010C9422010C9422010C94220154
:1000A0000C9422010C9422010C9422010C94220144
:1000B0000C9422010C9422010C9422010C94220134
:1000C0000C9422010C9422010C9422010C94220124
:1000D0000C9422010C9422010C9422010C94220114
:1000E0000C9422010C9432020C9422010C942201F3
:1000F0000C9422010C9422010C9422010C942201F4
:100100000C9422010C9422010C9422010C942201E3
:100110000C9422010C9422010C9422010C942201D3
:100120000C9422010C9422010C9422010C942201C3
:100130000C9422010C9422010C9422010C942201B3
:100140000C9422010C9422010C9422010C942201A3
:100150000C9422010C9422010C9422010C94D801DD
:100160000C9422010C9422010C9422010C94220183
:100170000C9422010C9422010C9422010C94220173
:100180000C9422010C9422010C9422010C94220163
:100190000C9422010C9422010C9422010C94220153
:1001A0000C9422010C9422010C9422010C94220143
:1001B0000C9422010C9422010C9422010C94220133
:1001C0000C9422010C9422010C9422010C94220123
:1001D0000C9422010C9422010C9422010C94220113
:1001E0000C9422010C9422010C9422010C94220103
:1001F0000C9422010C9422010C94220111241FBEA4
:10020000CFEFCDBFDFE2DEBF18BE19BE1ABE1BBEE8
:1002100010E2A0E0B0E2E4ECF6E000E00BBF02C0C8
:1002200007900D92A832B107D9F71BBE20E2A8E2D1
:10023000B0E201C01D92AF32B207E1F70E94820224
:100240000C9460030C94000083E080935000809134
:10025000510081FD06C0E1E5F0E000C0808181FF32
:10026000FCCF88ED84BF99E29093800084BF909387
:10027000810084BF81E08093400082E08093500041
:10028000089580E480937306809393068EE090E057
:10029000809326099093270988E090E08093260AAE
:1002A0009093270A80EB809361068093810678946F
:1002B00008958FE080936106809381068FEF80938D
:1002C000A00687E08093000B1092010B8FEF90E067
:1002D0008093260B9093270B8AE090E08093280B65
:1002E0009093290B80932A0B90932B0B80932C0BCC
:1002F00090932D0B80932E0B90932F0B089587E0F6
:100300008093A2000E9424010E9441010E94590191
:100310007894089520912A2030E0220F331F220F75
:10032000331F280F311DF901E050F04E208180E08D
:1003300090E0FC01E45EFF4D208301968C30910536
:10034000C1F70895F894611119C041E040932E203F
:100350002FE030E0B901681B710960932E0970939A
:100360002F0983E08093C10980ED8093C0098091BB
:100370001C208093C30940932C2018C041E0409377
:100380002D202FE030E0B901681B710960932E0A1F
:1003900070932F0A83E08093C10A83E58093C00A9B
:1003A000809110208093C30A40932B207894089565
:1003B0001F920F920FB60F92112408B60F9218BE1B
:1003C0000BB60F921BBE8F93EF93FF9380912E205D
:1003D0008B30A9F41092A40683E88093010981E090
:1003E000809300091092200910922109E0912E209B
:1003F000F0E0E45EFF4D80818093C30922C08091CC
:100400002E208C30B0F01092000988E08093020911
:10041000109201091092C10910922E2010922C20E6
:10042000E0912820F0E0E85FFF4D80818093A406F2
:1004300008C0E0912E20F0E0E45EFF4D80818093C3
:10044000C30980912E208F5F80932E20FF91EF9122
:100450008F910F900BBE0F9008BE0F900FBE0F90A4
:100460001F9018951F920F920FB60F92112408B685
:100470000F9218BE0BB60F921BBE8F93EF93FF9394
:1004800080912D208B3099F483E88093010A85E0D8
:100490008093000A1092200A1092210AE0912D20E8
:1004A000F0E0E05FFF4D80818093C30A1AC0809125
:1004B0002E208C3070F01092000A88E08093020A9F
:1004C0001092010A1092C10A10922D2010922B2036
:1004D00008C0E0912D20F0E0E05FFF4D8081809327
:1004E000C30A80912D208F5F80932D20FF91EF9183
:1004F0008F910F900BBE0F9008BE0F900FBE0F9004
:100500001F9018950E947F0187E080931C20109215
:100510001D2010921E2080931F20109220201092E8
:100520002120809322201092232010922420809357
:100530002520109226201092272060E088E00E945B
:10054000A20187E893E10197F1F700C000008FEF67
:1005500080931C2080931D2093E090931E20809315
:100560001F2080932020909321208093222080932D
:1005700023209093242080932520809326209093FD
:10058000272060E08FE00E94A20187E893E10197B5
:10059000F1F700C00000D2E0C3E06894EE24E2F876
:1005A0000F2EF5E0FF2EF02D06E017E01092282028
:1005B00080E00E948A0160E081E00E94A20183EF56
:1005C00091E00197F1F700C0000081E080932820BE
:1005D0000E948A0160E081E00E94A20192E49A9563
:1005E000F1F700C0D09328208D2F0E948A0160E08F
:1005F00081E00E94A20183EF91E00197F1F700C032
:100600000000C09328208C2F0E948A0160E081E0C6
:100610000E94A20183EF91E00197F1F700C0000072
:10062000E092282080E00E948A0160E081E00E9440
:10063000A20183EF91E00197F1F700C00000F09272
:10064000282081E00E948A0160E081E00E94A201EE
:1006500083EF91E00197F1F700C00000009328209C
:100660008D2F0E948A0160E081E00E94A20183EF49
:1006700091E00197F1F700C00000109328208C2F23
:100680000E948A0160E081E00E94A20183EF91E074
:100690000197F1F700C00000809129208F5F8093BF
:1006A00029208F3F29F480912A208F5F80932A2070
:1006B00080912A20823008F479CF10922A2076CFB8
:0406C000F894FFCFDC
:1006C400FFFFFFFFFFFFFFFF01041040802008022F
:1006D400FFFFFFFFFFFFFFFFFFFFFFFFFFFFFFFF26
:0806E400FFFFFFFFFF00000013
:00000001FF
